{
  "_format": "hh-sol-artifact-1",
  "contractName": "SmallProxy",
  "sourceName": "contracts/sublesson/SmallProxy.sol",
  "abi": [
    {
      "stateMutability": "payable",
      "type": "fallback"
    },
    {
      "inputs": [
        {
          "internalType": "uint256",
          "name": "numberToUpdate",
          "type": "uint256"
        }
      ],
      "name": "getDataToTransact",
      "outputs": [
        {
          "internalType": "bytes",
          "name": "",
          "type": "bytes"
        }
      ],
      "stateMutability": "pure",
      "type": "function"
    },
    {
      "inputs": [],
      "name": "readStorage",
      "outputs": [
        {
          "internalType": "uint256",
          "name": "valueAtStorageSlotZero",
          "type": "uint256"
        }
      ],
      "stateMutability": "view",
      "type": "function"
    },
    {
      "inputs": [
        {
          "internalType": "address",
          "name": "newImplementation",
          "type": "address"
        }
      ],
      "name": "setImplementation",
      "outputs": [],
      "stateMutability": "nonpayable",
      "type": "function"
    },
    {
      "stateMutability": "payable",
      "type": "receive"
    }
  ],
  "bytecode": "0x608060405234801561001057600080fd5b50610421806100206000396000f3fe6080604052600436106100385760003560e01c806331fadddf14610051578063d784d4261461007c578063df31349e146100a557610047565b36610047576100456100e2565b005b61004f6100e2565b005b34801561005d57600080fd5b506100666100fc565b604051610073919061022c565b60405180910390f35b34801561008857600080fd5b506100a3600480360381019061009e91906102aa565b610105565b005b3480156100b157600080fd5b506100cc60048036038101906100c79190610303565b61012b565b6040516100d991906103c9565b60405180910390f35b6100ea6101c2565b6100fa6100f56101c4565b6101ed565b565b60008054905090565b807f360894a13ba1a3210667c828492db98dca3e2076cc3735a920a3ca505d382bbc5550565b60608160405160240161013e919061022c565b6040516020818303038152906040527f55241077000000000000000000000000000000000000000000000000000000007bffffffffffffffffffffffffffffffffffffffffffffffffffffffff19166020820180517bffffffffffffffffffffffffffffffffffffffffffffffffffffffff83818316178352505050509050919050565b565b60007f360894a13ba1a3210667c828492db98dca3e2076cc3735a920a3ca505d382bbc54905090565b3660008037600080366000845af43d6000803e806000811461020e573d6000f35b3d6000fd5b6000819050919050565b61022681610213565b82525050565b6000602082019050610241600083018461021d565b92915050565b600080fd5b600073ffffffffffffffffffffffffffffffffffffffff82169050919050565b60006102778261024c565b9050919050565b6102878161026c565b811461029257600080fd5b50565b6000813590506102a48161027e565b92915050565b6000602082840312156102c0576102bf610247565b5b60006102ce84828501610295565b91505092915050565b6102e081610213565b81146102eb57600080fd5b50565b6000813590506102fd816102d7565b92915050565b60006020828403121561031957610318610247565b5b6000610327848285016102ee565b91505092915050565b600081519050919050565b600082825260208201905092915050565b60005b8381101561036a57808201518184015260208101905061034f565b83811115610379576000848401525b50505050565b6000601f19601f8301169050919050565b600061039b82610330565b6103a5818561033b565b93506103b581856020860161034c565b6103be8161037f565b840191505092915050565b600060208201905081810360008301526103e38184610390565b90509291505056fea264697066735822122000109f9b9516de332f55f4143d30b3a576200e969dbaad2da21d2beed638472d64736f6c63430008080033",
  "linkReferences": {},
  "deployedLinkReferences": {}
}